:100000000C94B5040C94D2040C94D2040C94D20435
:100010000C94D2040C94D2040C94D2040C94D20408
:100020000C94D2040C94D2040C94D2040C94D204F8
:100030000C94D2040C94D2040C94D2040C94D204E8
:100040000C94D2040C94D2040C94C2170C94D204D5
:100050000C94F5170C94D2040C94D2040C94D20492
:100060000C94D2040C94D2040C94D2040C94D204B8
:100070006E616E00696E6600000000000000000600
:100080000000000000000000000000000000400030
:10009000204000200000000306980C00023F1E06CE
:1000A0000000AB2CD59294CA69AB30000000000070
:1000B00000000000E0040001030700033F3F0F0FB2
:1000C0007300101043141000007F000000000000B7
:1000D00000000B5F0507D5620000000C0A0000005D
:1000E0000000000000000000000000000000000010
:1000F0000000000000500000080738E0FFFFE0E3C8
:100100009C0E6387F001FC38CE10026339C70E0FD6
:10011000C01FFFE00FC3C38E733900CE631C383E8F
:1001200003FFFFFF01F0F0E7198C1F0CCCE6731CF6
:10013000E38E1C3C3E0FC07FE0000000007FC03F0C
:1001400007C3C3871C739CE6633309998CC631CE01
:100150003C70F0F07E03FC001FFFFF8003FC07C132
:10016000F0F0E38E38C673319920FFFFFFC000FF27
:10017000C01FC07E07C1F0F87878F1E3871C638C5C
:10018000739CE6339998CCCCC0000001FFFFC003FC
:10019000FE01FC0FC1F83C1E1E1E3C78E38E38C7E2
:1001A00038C67399CCCE6666600004C60FF0639CB7
:1001B0007FFE390899C70FE007F0E399331C3E0032
:1001C000007C38CC109319CE38707E00FFFF007E83
:1001D0000E1C7398C926331CE1C1F01FFFFFF80FF6
:1001E000838738CC643DE09C5CEFEB4A866ABFAC09
:1001F0008B0115F27FF6DFCA408451216F39FEFF73
:100200003EBB39B7B6F678FABCFFBF7CF568590A31
:100210000183D3ABFDBB6448C21AFAB99681DBF304
:10022000251A1FF7E6896CB6D025DE0E368062D916
:100230009E1F9A0490C0F2B6FABD2F8FEF6F0EDEAC
:10024000AD9DADBEEE3FAF3FDE7BE8E461601227BF
:100250002D4FFCF540620BEF2AE1E25A9BB727E8ED
:100260007989AE661478FBCB3A0058D2FFBF5208AA
:10027000084499DAFBFBDFB78E694D392C28242816
:1002800034405979A2CAEFFFEFBF7225002485E6FA
:10029000F79B210C80F7CB352C99A27A7D3D20E08D
:1002A0001DDE27A31217F1B11004A4FF6D0903E2AC
:1002B000BD75D4C00D2C7F351903C357B1BF39A507
:1002C000CF02C20FE273FDFE77EA5B4F85018084A7
:1002D0004910D79EE42AEEB133757508F7F7481A2E
:1002E00056A409CDE881A4ED4E36A0E4FC9F8921F7
:1002F000C097DE5F9A1320D2E9AE5FDC165160B181
:10030000A6FA8E9F9EAC280552E09040E163B5E6C8
:10031000F8F9DBCBAC8D7D6D7E7985966E5195CFEE
:100320007A145CEADB42046CEEE3620430B1FFCF86
:1003300056041C7DE2FFC76214043081D2FBF7C76C
:100340008645140008244C7DA6CAE7F7FFFFFBF79B
:10035000EFE7E3DFDB7A1F20E09E5FA320DA1FE8F0
:10036000A1145BEE29D050ACB599C49C3B704B8472
:10037000E6BFEB07C5E63F6F4CC19CFB39DB41098B
:10038000E97EB41541CA27FDB95F064215B17FB6B3
:100390001D4681CFE8FB3E2F5845004BA0F4FEBC24
:1003A0002D5AC90003CF60F1BC7F3AAEDFD1860081
:1003B0000107D1DDA9F37AFEBFBC37302820589160
:1003C0004C47844200004081C20445C607084949A1
:1003D0000808F7F72808B7F6791956C5D96B173208
:1003E000E72D5A7212CBAF6790E4ED2E25C004EDD5
:1003F0004F477092FB0FEB026066ED6F89229065AC
:10040000EDAFDB04D092D9AE3F9A04D061A6ECFFE9
:100410007E4913E04185FA8E6F1D3914A0B0D2A534
:10042000FAADDFDFED390542D0A08143C5F8EB8D91
:100430000F6FCF2EAD5B1907153372C11060B0007E
:100440004080B0E1012142525262827E7D858676F3
:1004500071919A6A5999B66E3581D69B2540CEE343
:100460005A0468F2D33E0478F7D7460058E2F37B8B
:100470000C209DFBD756042CA5FBDF6E0C106CDA0C
:10048000FFC356081064CAFFE38E31001864BEF73C
:10049000F7C36E2500104891D6FBFBD39655200478
:1004A00004205085BAE3FBFFEFD3AF865D391C0C07
:1004B0000000081424384D61758A9AAAB6BEC7CFC9
:1004C000D3D7DBDBF4E0DF2020DFDF60219F9DA0BE
:1004D000631E5B21E59ED8A1A91FD5DEEC639219AE
:1004E0002DEA53D0A9739BC95D776A8B4D6E799BBA
:1004F00003D87A738EC363FE2C0745697F6805C7EE
:100500006A7FAA07C5A63F6F8CC19CFB7817C0CE37
:10051000303F2949025CFAFBDF0386A3FC391C0348
:100520008662FCFA6005035AB63E6C0FC04C27FD8C
:100530003A6389404FABFD7AE4CBC08B24B97EEFA0
:10054000D60302926BFCFDADD604814EE5783F7672
:10055000238E0143D12678BFB9E91545808716A9B6
:1005600078BF7B6DDC8C0201091828F6FEFE366828
:10057000998B0280454FDC2AB6FDBF3BB3A85BD008
:10058000C70140838A13DE68B239FDFF3EF9F3EB01
:10059000E39BD34C06420040C18488CD52D81DA3B2
:1005A000E8EDF1F5783B7CBEFFFFFFBFBE7E3DFC72
:1005B000BBBA7938F8F7B7B6B6F7F708F8F70718FF
:1005C000F8E70728F8C71759E8961689F966F5B9C4
:1005D0002A36A4D98C2733B61C8AB3137B6D9611A7
:1005E000276E5B42E2CADF9870A3ED4E36B015EE7F
:1005F000FE15E035DEFE25C004ED5F477082FBFF8F
:10060000CA12B0A7AFCE26A0A3FB1F0B031024FC79
:10061000CFCB033024FCEFFB04E0C3FA5F9E2751ED
:10062000E086EDBFFC05A041B7DDAFFC058000759D
:10063000FC1F8E481220A2C7DDCF5D38220071A6B4
:10064000FB3FEFAB066170C2C6EC4F0FDC1723E037
:100650001033E8DC3F1F0D390471507164E8EC5E23
:100660007F7E9C181471302002A5F8DC6EBFEF1E4F
:100670007B180542C07020D163C6F8EB9D2F9F0FF9
:100680006FED7B2907053372D130B02090F1429392
:10069000C5E6F8F9EACB9C7D3E0FCF8F5F1FEFBF19
:1006A0008F6F4F2E0EEEDECEBDBDADAD9D7D818236
:1006B0007D7D828279798A867175928A69719A962E
:1006C00065619DA6664D95BE763979CA9B3548BE53
:1006D000CF561C89EBA31D34C5EB6A0458EADB46F0
:1006E0000478F7CB310884FBCB350478F3D74A0084
:1006F00058E2EF760828B1FFB72D0464E2F38711C2
:100700001489F3E77208188DF3EB7A101074E2F78E
:10071000A32D003CB1FBDF76140858C6FFD7721436
:10072000044CB6FBEB9735002079D6FFDB86290019
:100730001C71CAFBEFA74D0C043489D6FFEBAF5AEE
:1007400018001C5CAAE7FFE7AB622100083879BEFD
:10075000EFFFEBBF7E4110000C3469A6DBF7FFEB27
:10076000C7925D2D0C0008204475A2CAEBFBFFF375
:10077000DBBB926E4928100400041428405D799672
:10078000B2CADFEFF7FFFFFBF7EFE3D7C7BBAA9EC5
:100790008E8275695D554D453D3834302C282828AA
:1007A000240822541EB907C8A4B35C40FFC7C05533
:1007B000FB8D5E9CB7008CFBF3DB10E19871047F2E
:1007C000C75E3D4E856A3FF521524BF68BE3FAFA40
:1007D000B0FE4A5015DE2F8A0633826DB220FA0928
:1007E000B4C70568FBCB4E0804182420A05F1EA2E6
:1007F0009E1BAD47FF43EB6E00F3AFC19E7F9F0092
:10080000D4F73D260C40C592A0EB32B5F73975FC04
:1008100091BF414BA822DF33458F4481FDED02B1EA
:10082000D95F4D1671C012C6F9DB9D6D7D7E857650
:100830007CA330F301D58718F6770CCDDB2120C1DE
:10084000FB971D04449DE3FBFBEFE3DB002020202E
:10085000200036363636005A5A5A5A008D8D8D8D04
:100860000011111111002020202000313131310000
:10087000407A10F35A00A0724E18090010A5D4E86F
:100880000000E87648170000E40B54020000CA9A02
:100890003B000000E1F50500008096980000004054
:1008A000420F000000A08601000000102700000099
:1008B00000E803000000006400000000000A0000DF
:1008C0000000000100000000002C76D888DC674F93
:1008D0000823DFC1DFAE59E1B1B796E5E3E453C6C3
:1008E0003AE651997696E8E6C28426EB898C9B62BB
:1008F000ED407C6FFCEFBC9C9F40F2BAA56FA5F465
:1009000090055A2AF75C936B6CF9676DC11BFCE08C
:10091000E40D47FEF520E6B500D0ED902E030094DF
:100920003577050080841E080000204E0A00000074
:10093000C80C333333330F986E12831141EF8D217E
:1009400014893BE65516CFFEE6DB18D1844B381BE5
:10095000F77C1D901DA4BBE424203284725E2281AA
:1009600000C9F124ECA1E53D270011241FBECFEF03
:10097000D0E1DEBFCDBF17E0A0E0B1E0EAE1FDE8E5
:1009800002C005900D92A63CB107D9F710E1A6EC84
:10099000B7E001C01D92A036B107E1F70E946605DD
:1009A0000C948B460C940000DF93CF9300D0CDB70E
:1009B000DEB79A83898300D000D0EDB7FEB73196B9
:1009C00080E091E09183808389819A8193838283FF
:1009D0000E94B8450F900F900F900F9088E191E022
:1009E0000E94D445A8E2B0E0E8E2F0E080818260B5
:1009F0008C93A2E2B0E0E2E2F0E080818F778C930A
:100A000088EC90E00E944D16A2E2B0E0E2E2F0E055
:100A1000808180688C93A8E2B0E0E8E2F0E0808119
:100A20008F778C9388EC90E00E944D16A8E2B0E09E
:100A3000E8E2F0E0808180688C93A8E2B0E0E8E230
:100A4000F0E080818F7B8C9388EC90E00E944D16C3
:100A5000A8E2B0E0E8E2F0E0808180648C93A8E254
:100A6000B0E0E8E2F0E080818D7F8C9388EC90E04C
:100A70000E944D16A8E2B0E0E8E2F0E080818260DA
:100A80008C93A8E2B0E0E8E2F0E080818F7B8C9369
:100A900088EC90E00E944D16A8E2B0E0E8E2F0E0B9
:100AA000808180648C93A8E2B0E0E8E2F0E080818D
:100AB0008F778C9388EC90E00E944D16A8E2B0E00E
:100AC000E8E2F0E0808180688C938CCFDF93CF9355
:100AD00000D000D00F92CDB7DEB79B838A837D8391
:100AE0006C8380E88983298181E090E00FB6F894D7
:100AF00020936100809361000FBEA1E2B0E0E1E2CB
:100B0000F0E0808180688C93A2E2B0E0E2E2F0E065
:100B1000808180688C93A7E2B0E0E7E2F0E080811A
:100B200080688C93A8E2B0E0E8E2F0E08081806821
:100B30008C93A7E2B0E0E7E2F0E0808180648C93E0
:100B4000A8E2B0E0E8E2F0E0808180648C93A7E264
:100B5000B0E0E7E2F0E0808182608C93A8E2B0E050
:100B6000E8E2F0E0808182608C93A1E2B0E0E1E213
:100B7000F0E0808180628C93A1E2B0E0E1E2F0E0FD
:100B800080818F7E8C930E9493170E9413180E947D
:100B9000612D0E94AD1D0E9417090E94D50A0E9476
:100BA000F329FBCFEF92FF920F931F93DF93CF9325
:100BB000CDB7DEB728970FB6F894DEBF0FBECDBF16
:100BC0009A8389837C836B834D832E838B819C8165
:100BD0008C3F910548F087E291E00E94D44581E086
:100BE00090E098878F837AC0E091EC08F091ED084F
:100BF00081E0868FE091EC08F091ED088B818B5FAE
:100C0000878FE091EC08F091ED088D8180A3E09151
:100C1000EC08F091ED088E8181A38091EC08909111
:100C2000ED089C012E5D3F4F89819A812817390775
:100C300061F08091EC089091ED0882964B815C8187
:100C400029813A81B9010E94DB44E090EC08F090E0
:100C5000ED080B811C818091EC089091ED08AC01AE
:100C6000425E5F4F8B819C819C012C5F3F4FCA018C
:100C7000B90140E00E94161B282FC701800F911F69
:100C8000FC01B2962083E091EC08F091ED08878D8D
:100C9000853048F484E491E00E94D44581E090E0FE
:100CA00098878F831BC08091EC089091ED08AC0170
:100CB000425E5F4FE091EC08F091ED08878D282FA0
:100CC00030E0E0915C10F0915D10CA0161E070E0ED
:100CD000A9019F010E94834518861F828F819885F4
:100CE00028960FB6F894DEBF0FBECDBFCF91DF912F
:100CF0001F910F91FF90EF900895DF93CF93CDB7A1
:100D0000DEB7AA970FB6F894DEBF0FBECDBF9EA385
:100D10008DA3EDA1FEA18081282F30E03AA729A75D
:100D200089A59AA58231910531F129A53AA52331EA
:100D3000310564F489A59AA582309105C9F029A5E9
:100D40003AA52330310509F4DDC068C289A59AA50A
:100D50008731910581F029A53AA52831310509F49B
:100D600015C289A59AA58331910509F40FC256C20F
:100D70001092F50853C28DA19EA108969093870901
:100D8000809386098DA19EA1FC01E857FF4F8081C9
:100D9000282F30E038A72FA38FA198A58730910581
:100DA00009F43CC22FA138A5283031050CF436C215
:100DB0008FA198A58C30910539F02FA138A52D3041
:100DC000310509F450C02AC2E091EC08F091ED0819
:100DD0008089863009F422C2E0918609F091870962
:100DE0002281338144815581E0918609F091870900
:100DF0008081682F70E08DB79EB70A970FB6F89480
:100E00009EBF0FBE8DBFEDB7FEB73196CE010596E2
:100E1000918380838BE691E093838283248335835F
:100E200046835783718760870E9409462DB73EB776
:100E3000265F3F4F0FB6F8943EBF0FBE2DBF00D0C8
:100E400000D0EDB7FEB7319685E891E091838083BD
:100E5000CE010596938382830E94B8450F900F9030
:100E60000F900F90DBC1E091EC08F091ED088089C4
:100E7000882309F4D3C1E0918609F0918709228182
:100E8000338144815581E0918609F0918709808101
:100E9000682F70E08DB79EB70A970FB6F8949EBF83
:100EA0000FBE8DBFEDB7FEB73196CE01059691838B
:100EB000808388E891E0938382832483358346830B
:100EC0005783718760870E9409462DB73EB7265F1A
:100ED0003F4F0FB6F8943EBF0FBE2DBF00D000D0DD
:100EE000EDB7FEB7319685E891E091838083CE011E
:100EF0000596938382830E94B8450F900F900F90C0
:100F00000F908CC1E091EC08F091ED08808986305B
:100F100009F080C08091EC089091ED08FC01E05E42
:100F2000FE4F80819181009709F074C08091EC0898
:100F30009091ED08FC01E05EFE4F81E090E091832E
:100F400080838DA19EA101962BE83BE0B90146E08C
:100F500050E00E94CE44009709F444C08DA19EA1A8
:100F60009C012F5F3F4F8BE89BE0B90146E050E0CA
:100F70000E94DB4481E090E09A8389838DA19EA149
:100F80009C012A5F3F4F49815A818EE89AE0B9015E
:100F90000E94DB4489819A81FC01E257F54F8AE384
:100FA000808389819A810196BC016257754F8DA11A
:100FB0009EA1AC01485F5F4FEDA1FEA18781282F64
:100FC00030E0CB01BA01A9010E94DB44EDA1FEA1F2
:100FD00097818981890F8F5F80938B0A81E180934C
:100FE0008C0A18C08DA19EA1AC01485F5F4FEDA196
:100FF000FEA18781282F30E08EE89AE0BA01A9018E
:101000000E94DB44EDA1FEA1878180938B0A8FE0D3
:1010100080938C0AE091EC08F091ED088089813092
:1010200009F066C08DA19EA101962BE83BE0B901B5
:1010300046E050E00E94CE44009711F18DA19EA1A0
:101040009C012F5F3F4F8BE89BE0B90146E050E0E9
:101050000E94DB44EDA1FEA18681282F30E000D064
:1010600000D0EDB7FEB7319685E991E0918380839A
:10107000338322830E94B8450F900F900F900F90FA
:101080001C821B822BC02B813C818DA19EA1820FD3
:10109000931FFC0138968081882F90E020915C108E
:1010A00030915D10B9010E9457452B813C818DA183
:1010B0009EA1820F931FFC01389680818D3049F4E8
:1010C00020915C1030915D108AE090E0B9010E949F
:1010D00057458B819C8101969C838B83EDA1FEA15A
:1010E0008781282F30E08B819C81821793075CF2E7
:1010F000E091EC08F091ED088089843009F08EC011
:10110000EDA1FEA1908580918A0B981709F486C005
:10111000EDA1FEA1808580938A0B80918809909132
:1011200089090196909389098093880920918809FB
:101130003091890900D000D0EDB7FEB731968BE928
:1011400091E091838083338322830E94B8450F907E
:101150000F900F900F90EDA1FEA18085282F30E019
:1011600000D000D0EDB7FEB7319680EB91E09183CF
:101170008083338322830E94B8450F900F900F9095
:101180000F908AE090E00E94CD4548C0E091EC08C5
:10119000F091ED088089882309F440C0E091EC08C3
:1011A000F091ED0880898630C9F5A2E2B0E0E2E274
:1011B000F0E0808180688C938DA19EA10896909329
:1011C000870980938609E0918609F09187098081DB
:1011D000882321F58091EC089091ED08FC01EE5DEB
:1011E000FE4F808191810097C9F48091860990918A
:1011F00087099C012E5F3F4F8EE899E0B90144E0DA
:1012000050E00E94DB448091EC089091ED08FC01D5
:10121000EE5DFE4F81E090E091838083AA960FB649
:10122000F894DEBF0FBECDBFCF91DF910895DF935D
:10123000CF93CDB7DEB766970FB6F894DEBF0FBE7B
:10124000CDBFCE0101969E878D87E9EBF1E0F88B4B
:10125000EF87F6E0F98BEF85F88900808F85988914
:101260000196988B8F87ED85FE8500828D859E8502
:1012700001969E878D8799899150998BE989EE23F4
:1012800051F7CE0107969B8B8A8BE3EBF1E0FD8B48
:10129000EC8BF6E0FE8BEC89FD8900808C899D89C2
:1012A00001969D8B8C8BEA89FB8900828A899B89B8
:1012B00001969B8B8A8B9E8991509E8BEE89EE23A3
:1012C00051F786EC97E09093ED088093EC088091BD
:1012D000EC089091ED080A969E012F5F3F4FB901EF
:1012E00046E050E00E94DB448091EC089091ED08CC
:1012F00004969E01295F3F4FB90146E050E00E94ED
:10130000DB448BE08093EE0883E78093790986EFD6
:1013100098E09E012F5F3F4FB90146E050E00E94E8
:10132000DB448EEE98E00E945E20E091EC08F091A4
:10133000ED081082118212821382E091EC08F09184
:10134000ED0886E0808BE091EC08F091ED08118AC1
:10135000E091EC08F091ED08128A8091EC089091F0
:10136000ED08FC01E05EFE4F118210828BE080935D
:10137000EE0881E98093790986E090E090937809FE
:10138000809377098EEE98E00E945E2066960FB6F5
:10139000F894DEBF0FBECDBFCF91DF910895DF93EC
:1013A000CF9300D000D0CDB7DEB79A8389838981EF
:1013B0009A819C838B838B819C81009731F08B81F8
:1013C0009C818130910549F00FC0A2E2B0E0E2E2D9
:1013D000F0E080818F7D8C9307C0A2E2B0E0E2E272
:1013E000F0E0808180628C930F900F900F900F90AF
:1013F000CF91DF910895DF93CF93CDB7DEB780E033
:1014000090E00E94CF098091EC089091ED089C013A
:101410002C5F3F4F8FEE98E0B90146E050E00E940C
:10142000DB4481E08093EE08E091EC08F091ED0858
:1014300082898093F508E091EC08F091ED08128A1A
:101440008EEE98E00E94431E81E090E00E94CF095A
:10145000CF91DF910895DF93CF93CDB7DEB780E0D2
:1014600090E00E94CF098091EC089091ED089C01DA
:101470002C5F3F4F8FEE98E0B90146E050E00E94AC
:10148000DB448EE08093EE08E091EC08F091ED08EB
:10149000128A8EEE98E00E94431E81E090E00E9446
:1014A000CF09CF91DF910895DF93CF93CDB7DEB70A
:1014B00080E090E00E94CF098091EC089091ED08C7
:1014C0009C012C5F3F4F8FEE98E0B90146E050E061
:1014D0000E94DB4484E18093EE08E091EC08F091F7
:1014E000ED08128A8EEE98E00E94431E81E090E0A3
:1014F0000E94CF09CF91DF910895DF93CF9300D061
:1015000000D0CDB7DEB70E94A117DC01CB018983E3
:101510009A83AB83BC832091910B3091920B4091C5
:10152000930B5091940B89819A81AB81BC81821B72
:10153000930BA40BB50B853F21E0920720E0A20797
:1015400020E0B20758F189819A81AB81BC818093F8
:10155000910B9093920BA093930BB093940B80916B
:10156000950B9091960B009771F481E090E0909329
:10157000960B8093950BA8E2B0E0E8E2F0E0808162
:101580008D7F8C930BC01092960B1092950BA8E256
:10159000B0E0E8E2F0E0808182608C930F900F90E1
:1015A0000F900F90CF91DF910895EF92FF920F93DC
:1015B0001F93DF93CF93CDB7DEB760970FB6F89444
:1015C000DEBF0FBECDBF19820E947D0AE091EC08FC
:1015D000F091ED088089863009F0E1C5E091EC08D2
:1015E000F091ED088189882379F58091EC0890913C
:1015F000ED08829622EC31E0B90144E050E00E940F
:10160000DB448091EC089091ED088C010E5D1F4F3A
:101610008091EC089091ED0882960E94EB4401962F
:101620009C01C801B90141E02FEF0E94D205A2E25E
:10163000B0E0E2E2F0E0808180628C93E091EC081F
:10164000F091ED0881E0818B87E99BE00E944719CA
:101650006F83788789879E012C5F3F4F3D872C875A
:10166000CE0107969F878E8793E0988BEE85FF8546
:1016700000802E853F852F5F3F4F3F872E87EC856B
:10168000FD8500822C853D852F5F3F4F3D872C8750
:1016900038893150388B8889882341F78C81E82F2D
:1016A000F0E0FB87EA872A853B852230310511F47B
:1016B0000C94F6158A859B858330910564F4EA8540
:1016C000FB853097D9F02A853B852130310511F40F
:1016D0000C94F61587C08A859B858430910509F4A2
:1016E0006BC0EA85FB85E430F1050CF456C02A8511
:1016F0003B852530310509F46AC074C08091EC083F
:101700009091ED08FC01EE5DFE4F80819181009784
:1017100089F08EE899E064E070E040E12FEF0E94EC
:10172000D2058091EC089091ED08FC01EE5DFE4F32
:10173000118210828091EC089091ED08FC01E05E2E
:10174000FE4F80819181009711F40C94F6158091E1
:101750008C0A813161F480918B0A282F30E08EE869
:101760009AE0B90141E12FEF0E94D2050BC08091B0
:101770008B0A282F30E08EE89AE0B9014FE02FEF76
:101780000E94D2058091EC089091ED08FC01E05E8A
:10179000FE4F118210820C94F6158091E70C909107
:1017A000E80C01969093E80C8093E70C8091990BDC
:1017B0008823B9F50C94F6158091E90C9091EA0C08
:1017C00001969093EA0C8093E90C0C94F6158091A5
:1017D000EB0C9091EC0C01969093EC0C8093EB0C3D
:1017E0000C94F6158C81282F30E04D815E8100D05D
:1017F00000D000D0EDB7FEB7319686EC91E0918332
:10180000808333832283558344830E94B8458DB7F8
:101810009EB706960FB6F8949EBF0FBE8DBF0C9470
:10182000F6158091990B8E3009F04AC00091EC08B2
:101830001091ED088BE99BE00E94C443F801E25E41
:10184000FE4F91838083E091EC08F091ED08128ABD
:101850008091EC089091ED0882962CED31E0B90171
:1018600048E050E00E94DB448091EC089091ED0844
:101870008C010E5D1F4F8091EC089091ED088296CF
:101880000E94EB4401969C0150919A0BC801B9014A
:1018900041E0252F0E94D2058091EC089091ED083F
:1018A000FC01E25EFE4F80819181181619060CF052
:1018B00073C4E091EC08F091ED0887E0808B6CC474
:1018C0008091990B843009F05BC00091EC08109175
:1018D000ED088BE99BE00E94C443F80187878BE009
:1018E0008093EE0883E7809379098091EC089091CA
:1018F000ED089C01265F3F4F86EF98E0B90146E076
:1019000050E00E94DB448EEE98E00E945E208091C1
:10191000EC089091ED08829600D000D000D0EDB791
:10192000FEB731969183808384EE91E09383828326
:101930008BE99BE0958384830E9409462DB73EB7CF
:101940002A5F3F4F0FB6F8943EBF0FBE2DBF809168
:10195000EC089091ED088C010E5D1F4F8091EC0812
:101960009091ED0882960E94EB4401969C01509163
:101970009A0BC801B90141E0252F0E94D2050CC481
:101980008091990B853009F043C00091EC081091CB
:10199000ED088BE99BE00E94C443F80181878091A8
:1019A000EC089091ED08829600D000D000D0EDB701
:1019B000FEB73196918380838BEE91E0938382838F
:1019C0008BE99BE0958384830E9409462DB73EB73F
:1019D0002A5F3F4F0FB6F8943EBF0FBE2DBF8091D8
:1019E000EC089091ED088C010E5D1F4F8091EC0882
:1019F0009091ED0882960E94EB4401969C015091D3
:101A00009A0BC801B90141E0252F0E94D205C4C339
:101A10008091990B883009F088C08BE99BE00E9487
:101A2000C443882F90E090937809809377098BE0E6
:101A30008093EE088FE7809379098EEE98E00E94FC
:101A40005E20809176098730C1F58091EC089091F5
:101A5000ED08829600D000D000D0EDB7FEB73196E9
:101A60009183808383EF91E0938382838BE99BE072
:101A7000958384830E9409468DB79EB706960FB65C
:101A8000F8949EBF0FBE8DBF8091EC089091ED0839
:101A90008C010E5D1F4F8091EC089091ED088296AD
:101AA0000E94EB4401969C0150919A0BC801B90128
:101AB00041E0252F0E94D2056FC38091EC089091E0
:101AC000ED08829600D000D000D0EDB7FEB7319679
:101AD000918380838EEF91E0938382838BE99BE0F7
:101AE000958384830E940946EDB7FEB736960FB6FC
:101AF000F894FEBF0FBEEDBF8091EC089091ED0809
:101B00008C010E5D1F4F8091EC089091ED0882963C
:101B10000E94EB4401969C0150919A0BC801B901B7
:101B200042E0252F0E94D20537C38091990B873060
:101B300009F099C08BE99BE00E94C44389838981A5
:101B4000882359F08981882F90E0880F991F880F8A
:101B5000991F880F991F815089838981882F90E070
:101B600090937809809377098BE08093EE0882E068
:101B7000809379098EEE98E00E945E20809176092C
:101B80008730C9F58091EC089091ED08829600D0DD
:101B900000D000D0EDB7FEB731969183808389E104
:101BA00092E0938382838BE99BE0958384830E94F8
:101BB00009462DB73EB72A5F3F4F0FB6F8943EBF98
:101BC0000FBE2DBF8091EC089091ED088C010E5D49
:101BD0001F4F8091EC089091ED0882960E94EB4493
:101BE00001969C0150919A0BC801B90141E0252F43
:101BF0000E94D205D1C28091EC089091ED088296A6
:101C000000D000D000D0EDB7FEB73196918380832D
:101C10008AE292E0938382838BE99BE095838483BD
:101C20000E9409468DB79EB706960FB6F8949EBFE0
:101C30000FBE8DBF8091EC089091ED088C010E5D78
:101C40001F4F8091EC089091ED0882960E94EB4422
:101C500001969C0150919A0BC801B90142E0252FD1
:101C60000E94D20599C28091990B893009F075C004
:101C70008BE99BE00E94C443882F90E09093780901
:101C8000809377098BE08093EE0880E78093790951
:101C90008EEE98E00E945E20809176098730C1F533
:101CA0008091EC089091ED08829600D000D000D091
:101CB000EDB7FEB73196918380838AE492E09383F7
:101CC00082838BE99BE0958384830E940946EDB76C
:101CD000FEB736960FB6F894FEBF0FBEEDBF8091EB
:101CE000EC089091ED088C010E5D1F4F8091EC087F
:101CF0009091ED0882960E94EB4401969C015091D0
:101D00009A0BC801B90141E0252F0E94D20544C2B7
:101D10008091EC089091ED08829622E532E0B901BD
:101D20004BE150E00E94DB448091EC089091ED087B
:101D30008C010E5D1F4F8091EC089091ED0882960A
:101D40000E94EB4401969C0150919A0BC801B90185
:101D500042E0252F0E94D2051FC28091990B863048
:101D600009F04DC08091EC089091ED089C012E5D2A
:101D70003F4FE091EC08F091ED088785482F50E047
:101D8000E091EC08F091ED088185682F70E08DB747
:101D90009EB708970FB6F8949EBF0FBE8DBFEDB7E4
:101DA000FEB73196318320838DE692E09383828360
:101DB00055834483778366830E940946EDB7FEB757
:101DC00038960FB6F894FEBF0FBEEDBF8091EC08B9
:101DD0009091ED088C010E5D1F4F8091EC08909161
:101DE000ED0882960E94EB4401969C0150919A0B5B
:101DF000C801B90141E0252F0E94D205CDC18091D3
:101E0000990B8A30D9F58091EC089091ED08829673
:101E100023E832E0B90145E050E00E94DB448091C4
:101E2000EC089091ED088C010E5D1F4F8091EC083D
:101E30009091ED0882960E94EB4401969C0150918E
:101E40009A0BC801B90141E0252F0E94D205E0910B
:101E5000EC08F091ED0881E0808B8BE08093EE0838
:101E600081E98093790986E090E0909378098093E6
:101E700077098EEE98E00E945E208EC18091990BCA
:101E80008B3009F045C08BE08093EE0882E78093A9
:101E9000790910927809109277098EEE98E00E94E5
:101EA0005E208BE08093EE0881E98093790986E0DB
:101EB00090E090937809809377098EEE98E00E94E5
:101EC0005E208091EC089091ED08829628E832E03F
:101ED000B90149E050E00E94DB448091EC08909108
:101EE000ED088C010E5D1F4F8091EC089091ED087C
:101EF00082960E94EB4401969C0150919A0BC80176
:101F0000B90141E0252F0E94D2050E942B0A44C14D
:101F10008091990B8C3009F045C08BE08093EE08DE
:101F200082E78093790910927809109277098EEEF2
:101F300098E00E945E208BE08093EE0881E9809318
:101F4000790986E090E090937809809377098EEE86
:101F500098E00E945E208091EC089091ED088296B6
:101F600021E932E0B90149E050E00E94DB44809170
:101F7000EC089091ED088C010E5D1F4F8091EC08EC
:101F80009091ED0882960E94EB4401969C0150913D
:101F90009A0BC801B90141E0252F0E94D2050E9489
:101FA000540AFAC08091990B853009F03FC0E09146
:101FB000EC08F091ED0885E0808B10928909109271
:101FC00088098BE08093EE0881E98093790986E0A7
:101FD00090E090937809809377098EEE98E00E94C4
:101FE0005E208091EC089091ED0882962AE932E01B
:101FF000B90146E050E00E94DB448091EC089091EA
:10200000ED088C010E5D1F4F8091EC089091ED085A
:1020100082960E94EB4401969C0150919A0BC80154
:10202000B90141E0252F0E94D205B6C08091990BDD
:102030008D30A9F58BE08093EE0881E980937909D2
:1020400086E090E090937809809377098EEE98E08F
:102050000E945E208091EC089091ED08829620EA23
:1020600032E0B9014BE050E00E94DB448091EC0883
:102070009091ED088C010E5D1F4F8091EC089091BE
:10208000ED0882960E94EB4401969C0150919A0BB8
:10209000C801B90141E0252F0E94D2057DC0809181
:1020A000990B8330E9F5E091EC08F091ED0880910F
:1020B000980B8550828BE091EC08F091ED088289B5
:1020C000482F50E086EF98E02BE93BE0B9010E94F1
:1020D000DB440E94FB098091EC089091ED08829608
:1020E0002BEA32E0B90149E050E00E94DB448091E4
:1020F000EC089091ED088C010E5D1F4F8091EC086B
:102100009091ED0882960E94EB4401969C015091BB
:102110009A0BC801B90141E0252F0E94D2053CC0AD
:102120008091EC089091ED089C012E5D3F4F8091CD
:10213000990B482F50E000D000D000D0EDB7FEB78B
:1021400031963183208384EB92E09383828355839D
:1021500044830E9409462DB73EB72A5F3F4F0FB612
:10216000F8943EBF0FBE2DBF8091EC089091ED0812
:102170008C010E5D1F4F8091EC089091ED088296C6
:102180000E94EB4401969C0150919A0BC801B90141
:1021900042E0252F0E94D2051092F50827C5E09154
:1021A000EC08F091ED088089882309F039C2E091AC
:1021B000EC08F091ED088189882309F046C0E09190
:1021C000EC08F091ED0881E0818B87EC92E00E94B1
:1021D000D4458EEC92E00E94D4458BEF92E00E94B1
:1021E000D4458EE293E00E94D44585E793E00E94B7
:1021F000D4458CEB93E00E94D44583E094E00E94A8
:10220000D4458AE494E00E94D44581E894E00E9499
:10221000D4458EEA94E00E94D44589ED94E00E9472
:10222000D44585E095E00E94D44586E395E00E9480
:10223000D4458EE595E00E94D4458EE995E00E9454
:10224000D4458FEB95E00E94D4458091C0019091D8
:10225000C101009781F000D0EDB7FEB7319686EE50
:1022600095E0918380830E94B8450F900F90109263
:10227000C1011092C00187E99CE00E949B18009761
:1022800009F4B4C481E090E09093C1018093C0014F
:102290008091970C882309F4A9C487E99CE02BEE70
:1022A00035E0B90144E050E00E94CE44009739F592
:1022B0000091EC081091ED088BE99CE00E94C4436A
:1022C000F80187878BE08093EE0883E78093790994
:1022D0008091EC089091ED089C01265F3F4F86EFBE
:1022E00098E0B90146E050E00E94DB448EEE98E0B1
:1022F0000E945E2080EF95E00E94D44519C087E9D6
:102300009CE023EF35E0B90145E050E00E94CE4467
:10231000009771F40091EC081091ED088CE99CE0B5
:102320000E94C443F801818780EF95E00E94D44564
:1023300087E99CE029EF35E0B90143E050E00E94D5
:10234000F444009711F58AE99CE00E94C443882F69
:1023500090E090937809809377098BE08093EE0862
:102360008FE7809379098EEE98E00E945E2080913D
:102370007609873029F480EF95E00E94D4454DC15D
:102380008DEF95E00E94D44548C187E99CE02DE09F
:1023900036E0B90144E050E00E94F444009791F522
:1023A0008AE99CE00E94C44389838981882359F08B
:1023B0008981882F90E0880F991F880F991F880FB7
:1023C000991F815089838981882F90E090937809A3
:1023D000809377098BE08093EE0882E080937909FF
:1023E0008EEE98E00E945E2080917609873029F475
:1023F00080EF95E00E94D44510C182E196E00E94F2
:10240000D4450BC187E99CE022E236E0B90144E003
:1024100050E00E94F444009711F58AE99CE00E9484
:10242000C443882F90E090937809809377098BE0DC
:102430008093EE0880E7809379098EEE98E00E9401
:102440005E2080917609873029F480EF95E00E9424
:10245000D445E3C087E296E00E94D445DEC087E918
:102460009CE027E336E0B90144E050E00E94F444E8
:10247000009731F4E091EC08F091ED08118ACDC09D
:1024800087E99CE023E832E0B90144E050E00E9493
:10249000F4440097B9F4E091EC08F091ED0881E084
:1024A000808B8BE08093EE0881E98093790986E048
:1024B00090E090937809809377098EEE98E00E94DF
:1024C0005E20ABC087E99CE02CE336E0B90144E034
:1024D00050E00E94F444009729F5E091EC08F09157
:1024E000ED0882E0808B8BE08093EE0882E780939A
:1024F000790910927809109277098EEE98E00E947F
:102500005E208BE08093EE0881E98093790986E074
:1025100090E090937809809377098EEE98E00E947E
:102520005E207BC087E99CE021E436E0B90144E00D
:1025300050E00E94F444009729F5E091EC08F091F6
:10254000ED0883E0808B8BE08093EE0882E7809338
:10255000790910927809109277098EEE98E00E941E
:102560005E208BE08093EE0881E98093790986E014
:1025700090E090937809809377098EEE98E00E941E
:102580005E204BC087E99CE026E436E0B90144E0D8
:1025900050E00E94F4440097D9F4E091EC08F091E7
:1025A000ED0885E0808B10928909109288098BE0F4
:1025B0008093EE0881E98093790986E090E090931A
:1025C0007809809377098EEE98E00E945E2025C0FE
:1025D00087E99CE02BE436E0B90144E050E00E943A
:1025E000F4440097D1F4E091EC08F091ED0884E018
:1025F000808B10928909109288098BE08093EE08F5
:1026000081E98093790986E090E09093780980933E
:1026100077098EEE98E00E945E201092F508E6C2DF
:10262000E091EC08F091ED088089813009F094C0C8
:102630000E949018009759F5E091EC08F091ED0890
:1026400080819181A281B3810F2EF4E1EF2EF0E021
:10265000FF2EF0E00F2FF0E01F2FF02DE80EF91EF7
:102660000A1F1B1F0E94A117DC01CB01E816F90607
:102670000A071B0708F0BAC2E091EC08F091ED08D8
:102680008289882309F4B2C20E94FB09AFC200917B
:10269000EC081091ED080E94A117DC01CB01F801B4
:1026A00080839183A283B38347C080915A10909115
:1026B0005B100E9415459B838A838A819B818B31A5
:1026C0009105F9F4E091EC08F091ED08108AE091A1
:1026D000EC08F091ED08128A80E596E00E94D4455E
:1026E0008BE08093EE0881E98093790988E090E09F
:1026F00090937809809377098EEE98E00E945E208F
:1027000075C220915C1030915D108A819B81B90166
:102710000E945745A091EC08B091ED0852963C916B
:102720005297832F90E02A81FC01EA50F74F2083D3
:10273000832F8F5F52968C930E949018009709F018
:10274000B4CFE091EC08F091ED0882898F3708F45E
:102750004DC20E94FB094AC2E091EC08F091ED08DD
:102760008089873009F078C071C02091EC083091E1
:10277000ED08F901E25EFE4F808191810197F90138
:10278000E25EFE4F9183808380915A1090915B109E
:102790000E9415459B838A83A091EC08B091ED08B7
:1027A00052963C915297832F90E02A81FC01EA5087
:1027B000F74F2083832F8F5F52968C935297E0912F
:1027C000EC08F091ED0882898F3758F48091EC087D
:1027D0009091ED08FC01E25EFE4F808191810097AF
:1027E00011F40E94FB098091EC089091ED08FC0126
:1027F000E25EFE4F80819181009741F58091EC0867
:102800009091ED08829623E636E0B90145E050E06C
:102810000E94DB448091EC089091ED088C010E5DE4
:102820001F4F8091EC089091ED0882960E94EB4436
:1028300001969C01C801B90141E02FEF0E94D20529
:10284000E091EC08F091ED0886E0808B0E949018F2
:10285000009709F08ACFCAC1E091EC08F091ED0829
:102860008089823009F075C0E091EC08F091ED08A4
:1028700080819181A281B3810F2EF4E1EF2EF0E0EF
:10288000FF2EF0E00F2FF0E01F2FF02DE80EF91EC5
:102890000A1F1B1F0E94A117DC01CB01E816F906D5
:1028A0000A071B07C0F48091BF018536A0F4809110
:1028B000BF018F5F8093BF010E942B0A0091EC083B
:1028C0001091ED080E94A117DC01CB01F801808373
:1028D0009183A283B3838091BF01853608F486C1BA
:1028E0008091BF01882F90E09C012150304000D0A2
:1028F00000D0EDB7FEB7319688E696E091838083ED
:10290000338322830E94B8450F900F900F900F9051
:102910001092BF01E091EC08F091ED08108AE0916F
:10292000EC08F091ED08128A8DE796E00E94D445FC
:102930008BE08093EE0881E98093790988E090E04C
:1029400090937809809377098EEE98E00E945E203C
:102950004DC1E091EC08F091ED088089833009F0D9
:1029600072C0E091EC08F091ED0880819181A28124
:10297000B3810F2EF4E1EF2EF0E0FF2EF0E00F2FE9
:10298000F0E01F2FF02DE80EF91E0A1F1B1F0E94FA
:10299000A117DC01CB01E816F9060A071B07C0F4F2
:1029A0008091BF018536A0F48091BF018F5F809335
:1029B000BF010E94540A0091EC081091ED080E949A
:1029C000A117DC01CB01F80180839183A283B3833B
:1029D0008091BF01853608F409C18091BF01282F7D
:1029E00030E000D000D0EDB7FEB7319688E696E033
:1029F00091838083338322830E94B8450F900F9088
:102A00000F900F901092BF01E091EC08F091ED084B
:102A1000108AE091EC08F091ED08128A8DE796E0BB
:102A20000E94D4458BE08093EE0881E98093790978
:102A300088E090E090937809809377098EEE98E093
:102A40000E945E20D3C0E091EC08F091ED088089EF
:102A5000853009F093C0E091EC08F091ED0882898F
:102A60008823B9F48091BF01843698F4A091EC08D2
:102A7000B091ED0852963C915297832F90E02091AF
:102A8000BF01FC01EA50F74F2083832F8F5F5296DE
:102A90008C93E091EC08F091ED0880819181A28106
:102AA000B3810F2EF4E1EF2EF0E0FF2EF0E00F2FB8
:102AB000F0E01F2FF02DE80EF91E0A1F1B1F0E94C9
:102AC000A117DC01CB01E816F9060A071B07D8F4A9
:102AD000E091EC08F091ED0882898823A1F08091C3
:102AE000BF018F5F8093BF010E94FB090091EC083A
:102AF0001091ED080E94A117DC01CB01F801808341
:102B00009183A283B3838091BF01843608F46EC0A1
:102B10008091BF01282F30E000D000D0EDB7FEB784
:102B2000319681E996E091838083338322830E94EA
:102B3000B8450F900F900F900F901092BF01E09149
:102B4000EC08F091ED08108AE091EC08F091ED08A6
:102B5000128A83EA96E00E94D4458BE08093EE08C7
:102B600081E98093790988E090E0909378098093D7
:102B700077098EEE98E00E945E2038C0E091EC0864
:102B8000F091ED088089843089F52CC080915A102D
:102B900090915B100E9415459B838A838A819B815B
:102BA0008B319105F9F4E091EC08F091ED08108A71
:102BB000E091EC08F091ED08128A88EB96E00E9413
:102BC000D4458BE08093EE0881E98093790988E011
:102BD00090E090937809809377098EEE98E00E94B8
:102BE0005E2004C00E949018009781F660960FB690
:102BF000F894DEBF0FBECDBFCF91DF911F910F9133
:102C0000FF90EF900895DF93CF9300D000D000D0D5
:102C1000CDB7DEB79E838D838D819E810097A1F114
:102C20008D819E81880F991F9C838B838D819E81CE
:102C30008B359105D0F08D819E819C01369527952D
:102C4000369527958B819C81820F931F9C838B8364
:102C50000CC08DE68A838A818A95F1F78A838B81FD
:102C60009C818D5690409C838B838B819C818E367A
:102C7000910578F78B819C81009731F08B81898356
:102C800089818A95F1F7898326960FB6F894DEBF7D
:102C90000FBECDBFCF91DF910895DF93CF93CDB716
:102CA000DEB76E970FB6F894DEBF0FBECDBF9E8F16
:102CB0008D8F8D8D9E8D009709F4FCC077C080E0CC
:102CC00090E0A4E1B2E4898F9A8FAB8FBC8F698DBD
:102CD0007A8D8B8D9C8D26E636E646EE54E40E9476
:102CE0000843DC01CB018D8B9E8BAF8BB88F6D8938
:102CF0007E898F89988D20E030E040E85FE30E9474
:102D0000BA4188232CF481E090E09C8B8B8B3FC0F0
:102D10006D897E898F89988D20E03FEF4FE757E4DA
:102D20000E94044318164CF5698D7A8D8B8D9C8D0D
:102D300020E030E040E251E40E940843DC01CB0196
:102D4000BC01CD010E942642DC01CB019C8B8B8B08
:102D50000FC088EB90E09A8B898B89899A890197BB
:102D6000F1F79A8B898B8B899C8901979C8B8B8B34
:102D70008B899C89009769F714C06D897E898F893A
:102D8000988D0E942642DC01CB019C8B8B8B8B891A
:102D90009C89988B8F878F8598890197F1F7988BFD
:102DA0008F878D8D9E8D85979E8F8D8F8D8D9E8D1E
:102DB0008632910508F083CF8D8D9E8D009709F4A2
:102DC00079C08D8D9E8DCC01A0E0B0E0BC01CD011D
:102DD0000E945242DC01CB018B879C87AD87BE8766
:102DE0006B857C858D859E8526E636E646EE54E429
:102DF0000E940843DC01CB018F839887A987BA879B
:102E00006F81788589859A8520E030E040E85FE32E
:102E10000E94BA4188232CF481E090E09E838D8348
:102E20003FC06F81788589859A8520E03FEF4FE725
:102E300057E40E94044318164CF56B857C858D85FC
:102E40009E8520E030E040E251E40E940843DC012E
:102E5000CB01BC01CD010E942642DC01CB019E8347
:102E60008D830FC088EB90E09C838B838B819C814A
:102E70000197F1F79C838B838D819E8101979E83BF
:102E80008D838D819E81009769F714C06F8178854D
:102E900089859A850E942642DC01CB019E838D8321
:102EA0008D819E819A83898389819A810197F1F727
:102EB0009A8389836E960FB6F894DEBF0FBECDBF9E
:102EC000CF91DF910895DF93CF9300D000D0CDB79D
:102ED000DEB769837A838B839C83E5E4F0E085E049
:102EE0008083A5E4B0E0E5E4F0E080818D7F8C9301
:102EF000EEE6F0E081E08083E6E4F0E088EB8083BA
:102F000089819A81AB81BC818093EE0C9093EF0C08
:102F1000A093F00CB093F10C0F900F900F900F90C6
:102F2000CF91DF910895DF93CF93CDB7DEB760E007
:102F300070E080E090E00E9463177894CF91DF9179
:102F40000895DF93CF9300D000D0CDB7DEB7F894CB
:102F50008091EE0C9091EF0CA091F00CB091F10CDF
:102F600089839A83AB83BC83789489819A81AB816E
:102F7000BC81BC01CD010F900F900F900F90CF91AD
:102F8000DF9108951F920F920FB60F9211248F9325
:102F90009F93AF93BF93EF93FF93DF93CF93CDB7FF
:102FA000DEB7E6E4F0E088EB80838091EE0C909150
:102FB000EF0CA091F00CB091F10C0A96A11DB11D7F
:102FC0008093EE0C9093EF0CA093F00CB093F10C67
:102FD000CF91DF91FF91EF91BF91AF919F918F9131
:102FE0000F900FBE0F901F9018951F920F920FB663
:102FF0000F9211248F93EF93FF93DF93CF93CDB76D
:10300000DEB7E6ECF0E080818093F20C81E0809303
:10301000F30CCF91DF91FF91EF918F910F900FBE45
:103020000F901F901895DF93CF93CDB7DEB7F8942C
:10303000E5ECF0E01082E4ECF0E089E18083A2ECC2
:10304000B0E0E2ECF0E0808186608C93A1ECB0E02F
:10305000E1ECF0E0808188698C93A0ECB0E0E0ECDA
:10306000F0E0808182608C931092F30C83EC96E008
:1030700090935D1080935C1083EC96E090935B10CE
:1030800080935A1083EC96E090935F1080935E10CB
:103090007894CF91DF910895DF93CF9300D0CDB78F
:1030A000DEB79A8389838091F30C8823E1F3109231
:1030B000F30C8091F20C882F90E00F900F90CF913D
:1030C000DF910895DF93CF9300D00F92CDB7DEB795
:1030D00089837B836A8389818A3069F4E0ECF0E03C
:1030E0008081882F90E0807290700097B9F3E6ECB1
:1030F000F0E08DE08083E0ECF0E08081882F90E0CC
:10310000807290700097B9F3E6ECF0E089818083DB
:1031100080E090E00F900F900F90CF91DF91089595
:10312000DF93CF93CDB7DEB78091F30C882F90E07B
:10313000CF91DF910895DF93CF9300D000D00F920D
:10314000CDB7DEB79B838A830E949018009719F44D
:103150001D821C8292C080915A1090915B100E9437
:103160001545898389818A3019F089818D3031F53F
:1031700020915C1030915D108DE090E0B9010E94CB
:10318000574520915C1030915D108AE090E0B901C4
:103190000E9457458091F40C9091F50C9C018A8116
:1031A0009B81FC01E20FF31F10821092F50C10922C
:1031B000F40C8A819B819D838C835FC089818830D8
:1031C00019F089818F3771F58091F40C9091F50C8D
:1031D0001816190624F58091F40C9091F50C0197BE
:1031E0009093F50C8093F40C20915C1030915D105D
:1031F00088E090E0B9010E94574520915C10309121
:103200005D1080E290E0B9010E94574520915C106A
:1032100030915D1088E090E0B9010E9457451D8211
:103220001C822BC08091F40C9091F50C8F34910589
:1032300014F589818032F8F089818F37E0F440916C
:10324000F40C5091F50C9A018A819B81FC01E20FEC
:10325000F31F89818083CA0101969093F50C8093B6
:10326000F40C8981882F90E020915C1030915D10E2
:10327000B9010E9457451D821C828C819D810F904F
:103280000F900F900F900F90CF91DF910895DF93E3
:10329000CF93CDB7DEB7A4970FB6F894DEBF0FBEBD
:1032A000CDBF9F878E870E94A117DC01CB018B8346
:1032B0009C83AD83BE830E949018009709F04FC095
:1032C0008091FA0C9091FB0C9D878C878091FA0C71
:1032D0009091FB0C009709F18091F60C9091F70CFE
:1032E000A091F80CB091F90C9C01AD01205D3A4819
:1032F0004F4F5F4F8B819C81AD81BE8182179307B9
:10330000A407B50718F481E08B8708C01092FB0C66
:103310001092FA0C85E08B8701C01B86CE010896BF
:103320009B8B8A8BFE013B96FD8BEC8BF3E0FE8B37
:10333000EC89FD8900808C899D8901969D8B8C8B01
:10334000EA89FB8900828A899B8901969B8B8A8BFB
:103350009E8991509E8BEE89EE2351F74FC180914B
:103360005A1090915B100E9415458F838091FA0C42
:103370009091FB0C9D878C878091FA0C9091FB0CAF
:10338000181619060CF03EC08091F60C9091F70CBF
:10339000A091F80CB091F90C9C01AD01205D3A4868
:1033A0004F4F5F4F8B819C81AD81BE8128173907BC
:1033B0004A075B0738F51092FB0C1092FA0C85E077
:1033C0008B87CE010896988F8F8BFE013B96FA8FE4
:1033D000E98FF3E0FB8FE98DFA8D0080898D9A8D5E
:1033E00001969A8F898FEF89F88D00828F89988D49
:1033F0000196988F8F8B9B8D91509B8FEB8DEE2339
:1034000051F7FCC08091FA0C9091FB0C01969093BF
:10341000FB0C8093FA0C8091FA0C9091FB0C998B29
:10342000888BE889F989E230F10599F188899989D1
:103430008330910534F4E889F989E130F10561F0D0
:1034400047C08889998983309105A1F1E889F98974
:10345000E430F105B1F13CC08F81813099F40E94D4
:10346000A117DC01CB018093F60C9093F70CA0938D
:10347000F80CB093F90CEE85FF858F81808382E094
:103480008B879CC01092FB0C1092FA0C84E08B8707
:1034900095C08F81853038F0EE85FF858F818183DF
:1034A00082E08B878BC01092FB0C1092FA0C84E0A8
:1034B0008B8784C0EE85FF858F81828382E08B8736
:1034C0007DC0EE85FF858F81838382E08B8776C008
:1034D0008091FA0C9091FB0C853091050CF468C03A
:1034E0008091FA0C9091FB0C9C01255030408E8508
:1034F0009F85820F931FFC0134968F818083EE8518
:10350000FF858181282F30E08091FA0C9091FB0C8F
:103510002817390709F049C08E859F859C012C5FCB
:103520003F4F8091FA0C9091FB0C0597F901E80F41
:10353000F91F80818A834E855F858091FA0C909176
:10354000FB0C01979C01CA01B90140E00E94161BC7
:1035500089839A818981981719F483E08B8720C029
:103560008981482F50E08A81282F30E000D000D098
:1035700000D0EDB7FEB7319681ED96E09183808360
:1035800053834283358324830E94B8458DB79EB709
:1035900006960FB6F8949EBF0FBE8DBF84E08B8752
:1035A0001092FB0C1092FA0C09C082E08B8706C0C7
:1035B0001092FB0C1092FA0C84E08B87FE01389677
:1035C000FD8FEC8FCE010B969F8F8E8F93E098A38B
:1035D000EE8DFF8D00808E8D9F8D01969F8F8E8F3B
:1035E000EC8DFD8D00828C8D9D8D01969D8F8C8F35
:1035F00098A1915098A3E8A1EE2351F720E02885E7
:1036000080E0898590E09A8529A38AA39BA389A15C
:103610009AA1ABA1BCA1BC01CD01A4960FB6F894B0
:10362000DEBF0FBECDBFCF91DF910895DF93CF9363
:10363000CDB7DEB72C970FB6F894DEBF0FBECDBF67
:10364000998788877B876A874C878091DA068130E3
:1036500091F51092DA061B821A8227C08A818F8325
:1036600088E0898313C08F81882354F48F81882F49
:1036700090E0880F991F982F88ED89278F8303C0CA
:103680008F81880F8F8389818150898389818823E5
:1036900051F78A819B81FC01E450F34F8F81808335
:1036A0008A819B8101969B838A838A819B818F3F3C
:1036B0009105A1F29CF28C858F831D821C821FC014
:1036C0002C813D8188859985FC01E20FF31F908153
:1036D0008F8189278E838E81882F90E0FC01E450B2
:1036E000F34F8081282F8F81882F90E0982F882793
:1036F00082278F838C819D8101969D838C832C8171
:103700003D818A859B8528173907D4F28F812C96B5
:103710000FB6F894DEBF0FBECDBFCF91DF910895F5
:10372000DF93CF93CDB7DEB7ABE2B0E0EBE2F0E0F2
:103730008081877F8C9381E090E00E944D16ABE200
:10374000B0E0EBE2F0E0808188608C93CF91DF9174
:103750000895DF93CF93CDB7DEB7F894A5E2B0E03C
:10376000E5E2F0E08081806B8C93A4E2B0E0E4E2DB
:10377000F0E08081806B8C93ABE2B0E0EBE2F0E0B4
:10378000808188608C93AAE2B0E0EAE2F0E0808178
:1037900088608C93ECE4F0E080E78083ADE4B0E0F7
:1037A000EDE4F0E0808181608C937894CF91DF919B
:1037B0000895DF93CF93CDB7DEB780E062E40E9437
:1037C000F31CCF91DF910895DF93CF9300D000D009
:1037D00000D0CDB7DEB78A837C836B834D838D8128
:1037E000813808F051C08D81882309F44DC0EFE580
:1037F000F0E080818983F894A5E2B0E0E5E2F0E0B2
:1038000080818F7E8C93EEE4F0E08D818F778083D2
:10381000EDE4F0E080818823DCF7EEE4F0E08A81DB
:103820008083EDE4F0E080818823DCF714C0EEE4CF
:10383000F0E08FEF8083EDE4F0E080818823DCF717
:10384000EEE4F0E08081EB81FC8180838B819C81C0
:1038500001969C838B838D818E838E81882311F0CA
:1038600081E08E838E819D8191509D838823F9F61E
:10387000A5E2B0E0E5E2F0E0808180618C93EFE5C5
:10388000F0E089818083789426960FB6F894DEBFA5
:103890000FBECDBFCF91DF910895DF93CF9300D0BE
:1038A00000D000D0CDB7DEB78A837C836B834D8395
:1038B000EFE5F0E080818983F894A5E2B0E0E5E2ED
:1038C000F0E080818F7E8C93EEE4F0E08D81806863
:1038D0008083EDE4F0E080818823DCF7EEE4F0E023
:1038E0008A818083EDE4F0E080818823DCF710C0DA
:1038F000AEE4B0E0EB81FC8180818C938B819C8174
:1039000001969C838B83EDE4F0E080818823DCF7D3
:103910008D818E838E81882311F081E08E838E814C
:103920009D8191509D83882319F7A5E2B0E0E5E2DF
:10393000F0E0808180618C93EFE5F0E08981808305
:10394000789426960FB6F894DEBF0FBECDBFCF9108
:10395000DF910895DF93CF9300D000D0CDB7DEB7CD
:103960008A837C836B83EFE5F0E080818983F89420
:10397000A5E2B0E0E5E2F0E080818F7E8C93EEE49A
:10398000F0E081E08083EDE4F0E080818823DCF7E3
:10399000EEE4F0E08A818083EDE4F0E0808188232A
:1039A000DCF7EEE4F0E08FEF8083EDE4F0E080817F
:1039B0008823DCF7EEE4F0E08081EB81FC818083FA
:1039C000A5E2B0E0E5E2F0E0808180618C93EFE574
:1039D000F0E08981808378940F900F900F900F9082
:1039E000CF91DF910895DF93CF9300D00F92CDB7A1
:1039F000DEB78A836B83EFE5F0E080818983F894FA
:103A0000A5E2B0E0E5E2F0E080818F7E8C93EEE409
:103A1000F0E081E88083EDE4F0E080818823DCF74A
:103A2000EEE4F0E08A818083EDE4F0E08081882399
:103A3000DCF7EEE4F0E08B818083EDE4F0E0808160
:103A40008823DCF7A5E2B0E0E5E2F0E08081806168
:103A50008C93EFE5F0E08981808378940F900F904C
:103A60000F90CF91DF910895DF93CF930F92CDB751
:103A7000DEB789838981813041F4ADE3B0E0EDE3C5
:103A8000F0E0808181608C9307C0ADE3B0E0EDE3AE
:103A9000F0E080818E7F8C930F90CF91DF9108951D
:103AA000DF93CF9300D000D0CDB7DEB70E94A1172F
:103AB000DC01CB0189839A83AB83BC832091010E07
:103AC0003091020E4091030E5091040E89819A812B
:103AD000AB81BC81281739074A075B0738F4A2E29B
:103AE000B0E0E2E2F0E0808180688C932091050EE6
:103AF0003091060E4091070E5091080E89819A81EF
:103B0000AB81BC81281739074A075B0738F4A8E264
:103B1000B0E0E8E2F0E0808180688C932091090EAB
:103B200030910A0E40910B0E50910C0E89819A81B2
:103B3000AB81BC81281739074A075B0738F4A8E234
:103B4000B0E0E8E2F0E0808180648C930F900F9009
:103B50000F900F90CF91DF910895DF93CF93CDB762
:103B6000DEB78BE08093BC0E8FE38093BE0E82E0C5
:103B70008093DB0E1092FF0D1092FE0D88EB9BE000
:103B8000A0E0B0E08093D30E9093D40EA093D50E16
:103B9000B093D60E88E893E1A0E0B0E08093D70E12
:103BA0009093D80EA093D90EB093DA0E0E94A1176D
:103BB0009B01AC018091D70E9091D80EA091D90EA7
:103BC000B091DA0E820F931FA41FB51F8093A90E28
:103BD0009093AA0EA093AB0EB093AC0E1092AD0EC4
:103BE0008EE08093CE0E1092DD0E1092E70E81E0F3
:103BF0008093DB068FE38093160F8FE78093170F78
:103C00008091150F83608093150F0E94CE2D8091B7
:103C1000600F882F90E082709070009721F084E010
:103C200080931A0F03C084E180931A0F84E080937D
:103C3000190F25E13FE08FE0B90146E00E944D1CDD
:103C40001092030F1092040F1092AE0E1092AF0E4E
:103C50001092BB0E1092B10E1092B20E1092160F6F
:103C60001092170F8091BF0E863041F480915C0F47
:103C7000982F9E6086E5692F0E94F31C1092050F15
:103C8000CF91DF910895DF93CF93CDB7DEB72B9718
:103C90000FB6F894DEBF0FBECDBF9C838B83EB8144
:103CA000FC818781813880F0EB81FC8182E0808318
:103CB0008B819C81FC01E857FF4F82E080838B81E0
:103CC0009C810E947D06CFC1EB81FC818081282FE1
:103CD00030E03B872A878A859B85823191058CF469
:103CE0002A853B852F303105ACF58A859B8581304F
:103CF0009105D1F02A853B852E30310509F42DC17F
:103D0000B2C18A859B858431910509F426C12A8533
:103D10003B85243131050CF4A6C18A859B8587310A
:103D200091050CF0A0C116C08091FE0D9091FF0D81
:103D3000009781F0EB81FC8182E080838B819C8104
:103D4000FC01E857FF4F82E080838B819C810E94B9
:103D50007D0689C18091D30E9091D40EA091D50E8D
:103D6000B091D60E0097A105B10509F44BC00E9491
:103D7000A1179B01AC018091A50E9091A60EA09178
:103D8000A70EB091A80E82179307A407B507D0F528
:103D90008091DD0E8823B1F50E940F2F882391F1C9
:103DA0000E94A1179B01AC018091D30E9091D40E7B
:103DB000A091D50EB091D60E820F931FA41FB51FF0
:103DC0008093A50E9093A60EA093A70EB093A80E75
:103DD0001092FD0D1092FC0D0E94A117DC01CB0189
:103DE000C296A11DB11D8093090E90930A0EA09357
:103DF0000B0EB0930C0EA8E2B0E0E8E2F0E0808198
:103E00008F7B8C938091000E813089F482E00E9438
:103E10004C2E8B819C819C01285F3F4FEB81FC8164
:103E2000978180E8B901492F0E944D1C10C083E0A2
:103E30000E944C2E8B819C819C01285F3F4FEB811F
:103E4000FC81978180E8B901492F0E944D1C80E0D8
:103E50000E944C2E8B819C819C012F5F3F4F88EEEE
:103E60009EE0B90146E050E00E94CE44009799F0F0
:103E70008B819C819C012F5F3F4F88EE9EE0B901B2
:103E800046E050E00E94DB4428EE3EE080E9B901C4
:103E900046E00E944D1CEB81FC81878189838091E3
:103EA000B10E882F90E081709070882319F090E215
:103EB000998701C0198629852A838A8188878091FC
:103EC000B10E882F90E082709070009719F030E466
:103ED0003F8301C01F8288859F81892B8A838A81C5
:103EE0008E838091B10E882F90E08470907000973F
:103EF00019F020E82D8301C01D828E813D81832B26
:103F00008A8388E99E012F5F3F4FB90142E00E94FA
:103F10004D1C81E08093050F85E56EE00E94F31C47
:103F20000E94A117DC01CB01C296A11DB11D809397
:103F3000010E9093020EA093030EB093040EA2E222
:103F4000B0E0E2E2F0E080818F778C938B819C81FE
:103F50009093FF0D8093FE0D86C080E090E0A0E876
:103F6000BFEB80938E0F90938F0FA093900FB09321
:103F7000910F10928C0F8091FE0D9091FF0D009784
:103F8000F1F0EB81FC8182E180838B819C81FC01DB
:103F9000E857FF4F82E080838B819C8108962CE854
:103FA0003FE0B90146E050E00E94DB44EB81FC8138
:103FB00086E087838B819C810E947D0654C080911E
:103FC000B10E882309F11092FF0D1092FE0DEB81C6
:103FD000FC8182E180838B819C81FC01E857FF4F4B
:103FE00010828B819C8108962CE83FE0B90146E065
:103FF00050E00E94DB44EB81FC8186E087838B816B
:104000009C810E947D062FC08B819C819C012F5F2B
:104010003F4F84EB9EE0B90146E050E00E94DB4454
:10402000EB81FC8180818E3069F481E08093B10E58
:104030008B819C819C012F5F3F4F81E0B9010E94E1
:10404000AE3911C0EB81FC818081843161F484E060
:104050008093B10E8B819C819C012F5F3F4F84E048
:10406000B9010E94AE392B960FB6F894DEBF0FBE91
:10407000CDBFCF91DF910895DF93CF9300D0CDB71F
:10408000DEB78091DD0E282F30E03A8329838981C5
:104090009A818130910531F029813A8122303105B0
:1040A00029F007C080E00E94163303C080E00E9420
:1040B000A8330F900F90CF91DF910895DF93CF93A6
:1040C000CDB7DEB76D970FB6F894DEBF0FBECDBF8C
:1040D0009E838D831C821B821A821982ED81FE8150
:1040E0008081282F30E03D8F2C8F4C8D5D8D4930A5
:1040F000510541F08C8D9D8D8B30910509F459C18E
:104100000C944328ED81FE818AE080838D819E811D
:10411000FC01E857FF4F87E080838D819E81FC0181
:10412000E557FF4F8081282F30E03B8F2A8F4A8D43
:104130005B8D4537510509F4D1C08A8D9B8D86373B
:1041400091055CF52A8D3B8D2137310509F498C026
:104150004A8D5B8D423751059CF48A8D9B8D823050
:10416000910509F475C02A8D3B8D2037310509F47E
:104170007BC04A8D5B8D4115510509F443C011C1C7
:104180008A8D9B8D8337910509F492C02A8D3B8DD2
:10419000243731050CF097C07FC04A8D5B8D4A37BC
:1041A000510509F4B3C08A8D9B8D8B37910594F42A
:1041B0002A8D3B8D2837310509F4B4C04A8D5B8DBB
:1041C0004937510564F58A8D9B8D8637910509F431
:1041D00091C0E7C02A8D3B8D2C37310509F4C9C049
:1041E0004A8D5B8D4C3751050CF4B7C08A8D9B8D81
:1041F0008D37910509F4C9C02A8D3B8D2F373105C4
:10420000D9F0CFC08091BC0E282F30E08D819E81E7
:10421000FC01E757FF4F318320830C9443288091A2
:10422000D20E282F30E08D819E81FC01E757FF4F91
:10423000318320830C9443288091BD0E282F30E0D9
:104240008D819E81FC01E757FF4F318320831BC77F
:104250008091BE0E282F30E08D819E81FC01E757B2
:10426000FF4F318320830FC78091CF0E282F30E07E
:104270008D819E81FC01E757FF4F3183208303C767
:104280008091CE0E282F30E08D819E81FC01E75772
:10429000FF4F31832083F7C68091E70E282F30E04F
:1042A0008D819E81FC01E757FF4F31832083EBC650
:1042B0008D819E81089621EC3EE0B90146E050E0F8
:1042C0000E94DB44E0C68D819E81089621EC3EE091
:1042D000B90146E050E00E94DB44D5C68091CD0E86
:1042E000282F30E08D819E81FC01E757FF4F3183FD
:1042F0002083C9C68091D00E282F30E08D819E8109
:10430000FC01E757FF4F31832083BDC68091DB0E50
:10431000282F30E08D819E81FC01E757FF4F3183CC
:104320002083B1C68091D30E9091D40EA091D50E6A
:10433000B091D60E28EE33E040E050E0BC01CD0154
:104340000E946B43DA01C9019C018D819E81FC01B1
:10435000E757FF4F3183208396C68091DC0E282FCC
:1043600030E08D819E81FC01E757FF4F3183208330
:104370008AC68091DD0E282F30E08D819E81FC0160
:10438000E757FF4F318320837EC68091BF0E282FD1
:1043900030E08D819E81FC01E757FF4F3183208300
:1043A00072C68D819E81FC01E857FF4F8AE08083B1
:1043B0006AC6ED81FE818CE080838D819E81FC0147
:1043C000E857FF4F87E080838D819E81FC01E55790
:1043D000FF4F8081482F50E0598F488F888D998DED
:1043E0008637910509F4B1C4288D398D27373105F9
:1043F000B4F5488D598D4137510509F478C3888D3E
:10440000998D8237910594F4288D398D22303105AC
:1044100009F4D5C2488D598D4037510509F422C39E
:10442000888D998D009709F463C026C6288D398D33
:104430002337310509F4F2C3488D598D43375105AF
:104440000CF4A9C3888D998D8437910509F415C49E
:10445000288D398D2537310509F43EC40DC6488DA8
:10446000598D4C37510509F426C5888D998D8D37A6
:104470009105FCF4288D398D2937310509F4E3C005
:10448000488D598D4A3751053CF4888D998D883770
:10449000910509F493C4F0C5288D398D2A3731056B
:1044A00009F4A9C4488D598D4B37510509F4E8C466
:1044B000E3C5888D998D8F37910509F450C0288DFB
:1044C000398D203831053CF4488D598D4D375105D3
:1044D00009F485C5D1C5888D998D8039910509F478
:1044E000A3C5288D398D2139310509F432C5C4C5DC
:1044F0008D819E81FC01E757FF4F80819181813141
:10450000910540F08D819E81FC01E857FF4F85E0C9
:104510008083B9C58D819E81FC01E757FF4F808163
:1045200091818093BC0E8091BC0E882F90E0009703
:1045300031F41C8281E08B8381E08A8306C081E0B4
:104540008C8383E08B8387E08A838091BC0E0E94FA
:10455000032E8C816B814A810E94293094C58D8104
:104560009E81FC01E757FF4F808191818430910546
:1045700040F08D819E81FC01E857FF4F85E08083EC
:1045800082C58D819E81FC01E757FF4F808191811B
:104590008093BD0E8091BD0E482F50E05F8B4E8BF7
:1045A0008E899F8982309105C1F02E893F89233001
:1045B000310509F14E895F894130510551F581E09E
:1045C0008C8383E08B8387E08A8381E08983809179
:1045D0004F0F8B7F80934F0F27C081E08C8383E048
:1045E0008B8387E08A8387E0898380914F0F8B7F5D
:1045F00080934F0F19C081E08C8383E08B8387E029
:104600008A838DE0898380914F0F8B7F80934F0F3A
:104610000BC01C8281E08B8381E08A8319828091A8
:104620004F0F8B7F80934F0F90914F0F89E4692F2D
:104630000E94F31C89810E94032E8C816B814A8128
:104640000E94293020C58D819E81FC01E757FF4FD4
:10465000808191818093D20E8D819E81FC01E757EC
:10466000FF4F808191819D8B8C8B2C893D892032DD
:10467000310509F493C04C895D894132510588F5B3
:104680008C899D898431910509F471C02C893D89FB
:104690002531310598F44C895D894B30510509F479
:1046A0005CC08C899D898C30910509F45BC02C8994
:1046B0003D892A30310509F44BC0AAC04C895D8977
:1046C0004E31510509F45EC08C899D898F31910569
:1046D00008F05EC02C893D892531310509F44CC0B4
:1046E00097C04C895D894C33510509F46FC08C89A2
:1046F0009D898D33910598F42C893D8929323105A6
:1047000009F457C04C895D894233510509F457C0FB
:104710008C899D898832910509F445C079C02C891E
:104720003D892E33310509F45FC04C895D894E33D4
:10473000510508F452C08C899D898634910509F48D
:1047400059C02C893D892734310509F45AC060C00D
:104750001C821B8286E08A8367C01C821B8281E0E8
:104760008A8362C01C821B8282E08A835DC01C82B5
:1047700081E08B831A8258C01C8281E08B8381E0A8
:104780008A8352C01C8282E08B8386E08A834CC07D
:104790001C8282E08B8387E08A8346C01C8282E091
:1047A0008B831A8241C01C8283E08B8386E08A83DC
:1047B0003BC01C8283E08B8387E08A8335C081E025
:1047C0008C8381E08B8381E08A832EC081E08C839F
:1047D00082E08B8386E08A8327C081E08C8382E03D
:1047E0008B8387E08A8320C081E08C8382E08B8387
:1047F0001A821AC081E08C8383E08B8386E08A83EF
:1048000013C081E08C8383E08B8387E08A830CC0B4
:104810008CED96E00E94D4458D819E81FC01E85785
:10482000FF4F85E080832FC48C816B814A810E9479
:1048300029308C81482F50E05B8B4A8B8A899B8979
:10484000009731F02A893B892130310571F01AC077
:1048500000D0EDB7FEB7319682E197E09183808377
:104860000E94B8450F900F9019C000D0EDB7FEB769
:10487000319683E297E0918380830E94B8450F9040
:104880000F900CC000D0EDB7FEB7319684E397E0EF
:10489000918380830E94B8450F900F908B81482FA1
:1048A00050E0598B488B888999898130910519F19D
:1048B000288939892230310534F4488959894115CC
:1048C000510561F03EC0888999898230910501F1D6
:1048D000288939892330310541F133C000D0EDB743
:1048E000FEB7319686E497E0918380830E94B845B5
:1048F0000F900F9026C000D0EDB7FEB731968FE431
:1049000097E0918380830E94B8450F900F9019C063
:1049100000D0EDB7FEB7319686E597E091838083AE
:104920000E94B8450F900F900CC000D0EDB7FEB7B5
:1049300031968DE597E0918380830E94B8450F9072
:104940000F908A81482F50E05F874E878E859F8524
:104950008230910579F12E853F85233031055CF455
:104960004E855F8541155105D9F08E859F85813033
:104970009105D9F088C32E853F852630310531F069
:104980004E855F854730510531F07DC384E697E061
:104990000E94D44578C38DE697E00E94D44573C346
:1049A00086E797E00E94D4456EC38FE797E00E94A8
:1049B000D44569C386E897E00E94D44564C38D81DD
:1049C0009E81FC01E757FF4F8081918180349105E2
:1049D00040F08D819E81FC01E857FF4F85E0808388
:1049E00052C38D819E81FC01E757FF4F80819181E9
:1049F0008F738093BE0E80914A0F807C80934A0F04
:104A000090914A0F8091BE0E892B80934A0F80911E
:104A1000BE0E8F3329F080914A0F8E7F80934A0F0C
:104A200090914A0F84E4692F0E94F31C80914B0FF0
:104A3000807C80934B0F90914B0F8091BE0E892B01
:104A400080934B0F8091BE0E8F3329F080914B0FD6
:104A50008E7F80934B0F90914B0F85E4692F0E94BE
:104A6000F31C11C31092E60E80915C0F982F916099
:104A700086E5692F0E94F31C8D819E81FC01E7571A
:104A8000FF4F80819181009759F48091540F8F7E60
:104A90008093540F8091600F817F8093600F0AC0D4
:104AA0008091540F80618093540F8091600F8A60D1
:104AB0008093600F9091540F8EE4692F0E94F31C35
:104AC0009091600F8AE5692F0E94F31C8091BF0EC0
:104AD000863009F0D8C281E08093E60E80915C0FA9
:104AE000982F9E6086E5692F0E94F31CCCC28D81B1
:104AF0009E81FC01E757FF4F808191818F309105A6
:104B000040F08D819E81FC01E857FF4F85E0808356
:104B1000BAC280915C0F982F916086E5692F0E9440
:104B2000F31C8D819E81FC01E757FF4F80819181AD
:104B30008093CE0E8091CE0E882331F48091420F67
:104B40008F708093420F13C08091420F8F708093BB
:104B5000420F2091420F8D819E81FC01E757FF4F4C
:104B6000808191818295807F822B8093420F9091EA
:104B7000420F8CE3692F0E94F31C8091BF0E863098
:104B800009F081C280915C0F982F9E6086E5692FA5
:104B90000E94F31C78C280915C0F982F916086E58B
:104BA000692F0E94F31C8D819E81FC01E757FF4F06
:104BB000808191818130910531F480914F0F846023
:104BC00080934F0F05C080914F0F8B7F80934F0FC5
:104BD00090914F0F89E4692F0E94F31C8D819E8173
:104BE000FC01E757FF4F808191818093E70E8D8113
:104BF0009E81FC01E757FF4F808191818093F60EE3
:104C00008091BF0E863009F03EC280915C0F982FD4
:104C10009E6086E5692F0E94F31C35C280915C0F6F
:104C2000982F916086E5692F0E94F31C8D819E81EB
:104C30009C01285F3F4F81EC9EE0B90146E050E0C7
:104C40000E94DB4480E00E944C2E8D819E819C015D
:104C5000285F3F4F80E8B90146E00E944D1C8091DB
:104C6000BF0E863009F00FC280915C0F982F9E60B6
:104C700086E5692F0E94F31C06C280915C0F982F75
:104C8000916086E5692F0E94F31C8D819E819C01B5
:104C9000285F3F4F87EC9EE0B90146E050E00E945C
:104CA000DB4480E00E944C2E8D819E819C01285F18
:104CB0003F4F88E8B90146E00E944D1C8091BF0E2D
:104CC000863009F0E0C180915C0F982F9E6086E5E8
:104CD000692F0E94F31CD7C180915C0F982F9160BF
:104CE00086E5692F0E94F31C8D819E81FC01E757A8
:104CF000FF4F808191818093CD0E8D819E81FC013B
:104D0000E757FF4F80819181009731F480915A0FCE
:104D10008F7780935A0F05C080915A0F80688093D7
:104D20005A0F90915A0F84E5692F0E94F31C8091CD
:104D3000BF0E863009F0A7C180915C0F982F9E604E
:104D400086E5692F0E94F31C9EC180915C0F982F0D
:104D5000916086E5692F0E94F31C8D819E81FC0184
:104D6000E757FF4F808191818093D00E8D819E8186
:104D7000FC01E757FF4F80819181009731F48091CA
:104D8000610F877F8093610F05C08091610F8860FC
:104D90008093610F9091610F8BE5692F0E94F31C46
:104DA0008091BF0E863009F06EC180915C0F982F04
:104DB0009E6086E5692F0E94F31C65C18D819E81EE
:104DC000FC01E757FF4F2081318188EE93E0AC0171
:104DD000249FC001259F900D349F900D1124CC017C
:104DE000A0E0B0E08093D30E9093D40EA093D50EA4
:104DF000B093D60E48C18D819E81FC01E757FF4FCD
:104E0000808191818230910540F08D819E81FC01ED
:104E1000E857FF4F85E0808336C18091D30E909193
:104E2000D40EA091D50EB091D60E1D860097A10587
:104E3000B10511F051E05D878D858093DB068D8192
:104E40009E81FC01E757FF4F808191818093DB0EAB
:104E50000E94CE2D8D819E81FC01E757FF4F8081FE
:104E60009181682F8D819E810896FC01208131817E
:104E700042815381862FBA01A9010E94333203C1B6
:104E80008D819E81FC01E757FF4F80819181877062
:104E90008093DC0E88EF8093610F9091610F809179
:104EA000DC0E892B8093610F9091610F8BE5692F48
:104EB0000E94F31CE8C08D819E81FC01E757FF4FE3
:104EC000808191818330910540F08D819E81FC012C
:104ED000E857FF4F85E08083D6C08D819E81FC011D
:104EE000E757FF4F208131813C872B874B855C85BD
:104EF0004130510531F08B859C858230910569F0F8
:104F000018C00E943C2081E00E9416338DE09EE094
:104F10009093FF0D8093FE0D12C00E943C2081E013
:104F20000E94A8338DE09EE09093FF0D8093FE0DCC
:104F300006C00E943C201092FF0D1092FE0D8D8144
:104F40009E81FC01E757FF4F808191818093DD0EA8
:104F50009AC08D819E81FC01E757FF4F20813181EE
:104F60003A87298749855A854630510529F0898530
:104F70009A858830910559F58D819E81FC01E7570E
:104F8000FF4F808191818093BF0E80915C0F982F9D
:104F90009D6086E5692F0E94F31C81E16FE70E9406
:104FA000F31C1092AF0E8D819E81FC01E757FF4FDD
:104FB000808191818630910509F065C080915C0FF8
:104FC000982F926086E5692F0E94F31C5CC08D814A
:104FD0009E81FC01E857FF4F85E0808354C08D819E
:104FE0009E81FC01E757FF4F2081318138872F8355
:104FF0004F8158854630510529F08F81988588303A
:10500000910551F48D819E81FC01E757FF4F80810E
:1050100091818093BF0E37C08D819E81FC01E8573E
:10502000FF4F85E080832FC080915C0F982F9160A7
:1050300086E5692F0E94F31C8D819E81FC01E75754
:10504000FF4F808191819C018EED9EE0B90148E087
:1050500050E00E94DB448EED9EE00E94163080916D
:10506000BF0E863081F480915C0F982F9E6086E59C
:10507000692F0E94F31C07C08D819E81FC01E857B7
:10508000FF4F8AE080836D960FB6F894DEBF0FBEA7
:10509000CDBFCF91DF910895DF93CF9300D00F92D2
:1050A000CDB7DEB70E94A117DC01CB01C296A11DCE
:1050B000B11D8093050E9093060EA093070EB0933A
:1050C000080EA8E2B0E0E8E2F0E080818F778C93F0
:1050D00081E39E012F5F3F4FB9010E94AA1C1092ED
:1050E000AF0E898188230CF078C180E00E944C2E9D
:1050F0002EE03EE080EBB90146E00E94E41B9E01F9
:105100002E5F3F4F88EBB90142E00E94E41B8B8188
:105110008295869587708093B20E2DE93EE088EAED
:10512000B90146E00E94E41B8A818093140E8091AD
:10513000140E813870F08091BF0E863009F04DC199
:1051400080915C0F982F9E6086E5692F0E94F31C6A
:1051500044C18091000E813089F41092000E80913C
:10516000500F8E7F8093500F9091500F8AE4692FDB
:105170000E94F31C83E00E944C2E11C081E08093BA
:10518000000E8091500F81608093500F9091500FCE
:105190008AE4692F0E94F31C82E00E944C2E109238
:1051A000AD0E0E94A1179B01AC018091D70E90918A
:1051B000D80EA091D90EB091DA0E820F931FA41FC2
:1051C000B51F8093A90E9093AA0EA093AB0EB09337
:1051D000AC0E8091BF0E863041F480915C0F982F09
:1051E0009E6086E5692F0E94F31C9091140E25E1C4
:1051F0003EE080E8B901492F0E94E41B80E00E9454
:105200004C2E8091610F882F90E0887090700097ED
:1052100061F08091B10E882321F48091B20E882331
:1052200021F08091A20E8F3F71F48FEF90E0909368
:10523000970E8093960E83E080930D0E8DE09EE096
:105240000E947D06CAC08091B10E8823A9F5809185
:10525000B20E813021F08091B20E843069F584EB7A
:105260009EE02EE03EE0B90146E050E00E94DB44C3
:105270002091140E85E19EE0622F0E946838809193
:10528000B20E813051F482E08093B10E24EB3EE007
:1052900082E0B9010E94AE39A0C08091B20E843084
:1052A00009F09BC085E08093B10E24EB3EE085E0E1
:1052B000B9010E94AE3991C084EB9EE02EE03EE041
:1052C000B90146E050E00E94CE44009799F48091E5
:1052D000B10E823079F48091B20E823059F420916F
:1052E000140E85E19EE0622F0E94683883E080936F
:1052F000B10E73C084EB9EE02EE03EE0B90146E0C3
:1053000050E00E94CE44009709F067C08091B10E32
:10531000833021F48091B20E833051F08091B10E30
:10532000853009F05AC08091B20E853009F055C021
:105330000E9407332091140E85E19EE0622F0E94A7
:1053400068380E945E3ADC01CB0180938E0F909307
:105350008F0FA093900FB093910F0E947E3A80938D
:105360008D0F80918E0F90918F0FA091900FB09123
:10537000910FBC01CD0120E030E040E050E00E9400
:10538000BA4188231CF480E880938C0F8FEF90E063
:105390009093970E8093960E85E19EE02CE83FE077
:1053A000B90146E050E00E94DB4486E08093140E91
:1053B0008091B20E833021F483E180930D0E07C0FB
:1053C0008091B20E853019F488E180930D0E109211
:1053D000B10E8DE09EE00E947D060F900F900F9021
:1053E000CF91DF910895DF93CF9300D000D00F923B
:1053F000CDB7DEB70E94A1179B01AC018091A90E29
:105400009091AA0EA091AB0EB091AC0E82179307AB
:10541000A407B50788F48091AD0E882369F481E074
:105420008093AD0E84E080930D0E80E88093980EFB
:105430008DE09EE00E947D068091DB06813011F4B4
:105440000E94AE2C0E94501D8091050F823009F001
:10545000CCC19E012D5F3F4F8CE3B9010E94AA1C75
:105460009091CE0E8B81981708F0AAC08091050FFD
:10547000823009F0A5C08091FC0D9091FD0D019640
:105480009093FD0D8093FC0D8091FC0D9091FD0D8E
:10549000843091050CF48AC08091D30E9091D40E83
:1054A000A091D50EB091D60E0097A105B10509F4D3
:1054B0007DC08091DD0E8823C1F50E940F2F8823C7
:1054C00009F474C00E94A1179B01AC018091D30E16
:1054D0009091D40EA091D50EB091D60E820F931F4D
:1054E000A41FB51F8093A50E9093A60EA093A70EA0
:1054F000B093A80E1092FD0D1092FC0D0E94A11702
:10550000DC01CB01C296A11DB11D8093090E9093C1
:105510000A0EA0930B0EB0930C0EA8E2B0E0E8E2E6
:10552000F0E080818F7B8C9341C08091DD0E8130D3
:10553000F9F480E00E9416330E940F2F0E94A117F9
:10554000DC01CB01C296A11DB11D8093090E909381
:105550000A0EA0930B0EB0930C0EA8E2B0E0E8E2A6
:10556000F0E080818F7B8C9381E00E9416331EC017
:1055700080E00E94A8330E940F2F0E94A117DC0137
:10558000CB01C296A11DB11D8093090E90930A0E06
:10559000A0930B0EB0930C0EA8E2B0E0E8E2F0E0AE
:1055A00080818F7B8C9381E00E94A8338091FE0DD7
:1055B0009091FF0DFC01E857FF4F8CE0808309C0FC
:1055C0008091FE0D9091FF0DFC01E857FF4F87E0A1
:1055D00080838091AE0E8B7F8093AE0E1092050F6C
:1055E0002091FE0D3091FF0D8B81882F90E0F90105
:1055F000E757FF4F91838083E091FE0DF091FF0DFF
:105600008081282F30E03D832C838C819D818131E6
:10561000910509F4CFC02C813D812231310564F41C
:105620008C819D818F309105A1F02C813D812031AD
:10563000310509F49DC0C5C08C819D8185319105DE
:1056400009F44EC02C813D812631310509F4B2C0E8
:10565000B8C0E091FE0DF091FF0D82E180831092C1
:10566000B30E8091FE0D9091FF0DFC01E857FF4FA6
:105670008081873069F48B810E943D3982E080937C
:10568000B10E8091FF0E9091000F0E94F33207C07F
:1056900080918C0F826080938C0F1092B10E80915C
:1056A000FE0D9091FF0D08962CE83FE0B90146E011
:1056B00050E00E94DB44E091FE0DF091FF0D86E08A
:1056C00087838091FE0D9091FF0D9A8389831092BC
:1056D000FF0D1092FE0D89819A810E947D0685C082
:1056E000E091FE0DF091FF0D87E1808382E08093D1
:1056F000B30E8091FE0D9091FF0DFC01E857FF4F16
:105700008081873069F48B810E943D3985E08093E8
:10571000B10E8091010F9091020F0E94F33207C0E9
:1057200080918C0F826080938C0F1092B10E8091CB
:10573000FE0D9091FF0D08962CE83FE0B90146E080
:1057400050E00E94DB44E091FE0DF091FF0D86E0F9
:1057500087838091FE0D9091FF0D9A83898310922B
:10576000FF0D1092FE0D89819A810E947D063DC039
:105770008091FE0D9091FF0DFC01E857FF4F808155
:10578000873089F48B810E943D391092FF0D109271
:10579000FE0D83E08093B10E24EB3EE083E0B9017F
:1057A0000E94AE3922C01092B10E1092FF0D1092DD
:1057B000FE0D1BC01092B10E1092FF0D1092FE0D47
:1057C00014C0E091FE0DF091FF0D82E08083809186
:1057D000FE0D9091FF0D9A8389831092FF0D109218
:1057E000FE0D89819A810E947D068091050F882394
:1057F00051F48091AF0E882F90E0847090700097E4
:1058000011F00E944C288091D30E9091D40EA0915B
:10581000D50EB091D60E0097A105B10509F496C03A
:105820008091FC0D9091FD0D8430910594F40E94BF
:10583000A1179B01AC018091A50E9091A60EA0919D
:10584000A70EB091A80E82179307A407B50708F01A
:105850007DC08091DD0E8823C1F50E940F2F882323
:1058600009F474C00E94A1179B01AC018091D30E72
:105870009091D40EA091D50EB091D60E820F931FA9
:10588000A41FB51F8093A50E9093A60EA093A70EFC
:10589000B093A80E1092FD0D1092FC0D0E94A1175E
:1058A000DC01CB01C296A11DB11D8093090E90931E
:1058B0000A0EA0930B0EB0930C0EA8E2B0E0E8E243
:1058C000F0E080818F7B8C9341C08091DD0E813030
:1058D000F9F480E00E9416330E940F2F0E94A11756
:1058E000DC01CB01C296A11DB11D8093090E9093DE
:1058F0000A0EA0930B0EB0930C0EA8E2B0E0E8E203
:10590000F0E080818F7B8C9381E00E9416331EC073
:1059100080E00E94A8330E940F2F0E94A117DC0193
:10592000CB01C296A11DB11D8093090E90930A0E62
:10593000A0930B0EB0930C0EA8E2B0E0E8E2F0E00A
:1059400080818F7B8C9381E00E94A8330F900F9011
:105950000F900F900F90CF91DF910895DF93CF9329
:1059600000D0CDB7DEB723E03FE080E1B90142E0EF
:105970000E94E41B8091030F8823D1F09091030FC4
:1059800080E1692F0E94F31C8091030F982F94707F
:105990008091AE0E892B8093AE0E8091AE0E882F33
:1059A00090E084709070009719F082E08093050F6A
:1059B0008091040F882379F09091040F81E1692F81
:1059C0000E94F31C8091040F982F94708091AF0E69
:1059D000892B8093AF0E2AEB3EE08FE0B90141E0C6
:1059E0000E94E41B8091BA0E882F90E08074907022
:1059F000009709F461C00E9407338091B30E282FED
:105A000030E03A83298389819A81009731F0298196
:105A10003A812230310559F014C081E08093B30EF1
:105A20008091FF0E9091000F0E94F33245C083E0F9
:105A30008093B30E8091010F9091020F0E94F33278
:105A40003BC08091B10E823059F480918C0F8460FC
:105A500080938C0F80918C0F886080938C0F09C08D
:105A60008091B10E833029F480918C0F88608093EF
:105A70008C0F87E08093B10E8FEF90E09093970E9C
:105A80008093960E85E19EE02CE83FE0B90146E068
:105A900050E00E94DB4486E08093140E83E1809303
:105AA0000D0E8DE09EE00E947D061092B10E81E009
:105AB0008093BB0E1092BA0E0F900F90CF91DF9192
:105AC0000895DF93CF93CDB7DEB780918D078130F6
:105AD00009F04AC010928D071092F10E81E0809378
